{
    "contractName": "greeter",
    "abi": [
        {
            "constant": true,
            "inputs": [],
            "name": "hello",
            "outputs": [
                {
                    "name": "",
                    "type": "string"
                }
            ],
            "payable": false,
            "stateMutability": "view",
            "type": "function"
        },
        {
            "constant": false,
            "inputs": [
                {
                    "name": "name",
                    "type": "string"
                }
            ],
            "name": "set",
            "outputs": [],
            "payable": false,
            "stateMutability": "nonpayable",
            "type": "function"
        },
        {
            "constant": false,
            "inputs": [],
            "name": "Greeter",
            "outputs": [],
            "payable": false,
            "stateMutability": "nonpayable",
            "type": "function"
        },
        {
            "constant": true,
            "inputs": [],
            "name": "yourName",
            "outputs": [
                {
                    "name": "",
                    "type": "string"
                }
            ],
            "payable": false,
            "stateMutability": "view",
            "type": "function"
        }
    ],
    "bytecode": "608060405234801561001057600080fd5b506103be806100206000396000f3fe608060405234801561001057600080fd5b506004361061004c5760003560e01c806319ff1d21146100515780634ed3885e146100ce578063777256c414610176578063d97d66301461017e575b600080fd5b610059610186565b6040805160208082528351818301528351919283929083019185019080838360005b8381101561009357818101518382015260200161007b565b50505050905090810190601f1680156100c05780820380516001836020036101000a031916815260200191505b509250505060405180910390f35b610174600480360360208110156100e457600080fd5b8101906020810181356401000000008111156100ff57600080fd5b82018360208201111561011157600080fd5b8035906020019184600183028401116401000000008311171561013357600080fd5b91908080601f01602080910402602001604051908101604052809392919081815260200183838082843760009201919091525092955061021d945050505050565b005b610174610234565b610059610263565b60008054604080516020601f60026000196101006001881615020190951694909404938401819004810282018101909252828152606093909290918301828280156102125780601f106101e757610100808354040283529160200191610212565b820191906000526020600020905b8154815290600101906020018083116101f557829003601f168201915b505050505090505b90565b80516102309060009060208401906102f1565b5050565b6040805180820190915260058082526415dbdc9b1960da1b6020909201918252610260916000916102f1565b50565b6000805460408051602060026001851615610100026000190190941693909304601f810184900484028201840190925281815292918301828280156102e95780601f106102be576101008083540402835291602001916102e9565b820191906000526020600020905b8154815290600101906020018083116102cc57829003601f168201915b505050505081565b828054600181600116156101000203166002900490600052602060002090601f016020900481019282601f1061033257805160ff191683800117855561035f565b8280016001018555821561035f579182015b8281111561035f578251825591602001919060010190610344565b5061036b92915061036f565b5090565b61021a91905b8082111561036b576000815560010161037556fea265627a7a72305820c56eab563a048796200646b48ea8979e000839858f64af8ecd95d9f432ad221d64736f6c634300050a0032",
    "sourcePath": "f:/Documentos/Solidity/greeter.sol",
    "compiler": {
        "name": "solc",
        "version": "0.5.10+commit.5a6ea5b1"
    },
    "functionHashes": {
        "Greeter()": "777256c4",
        "hello()": "19ff1d21",
        "set(string)": "4ed3885e",
        "yourName()": "d97d6630"
    },
    "gasEstimates": {
        "creation": {
            "codeDepositCost": "191600",
            "executionCost": "232",
            "totalCost": "191832"
        },
        "external": {
            "Greeter()": "infinite",
            "hello()": "infinite",
            "set(string)": "infinite",
            "yourName()": "infinite"
        }
    }
}